:100000000C94C3010C94D2050C94AB050C9484059C
:100010000C945D050C94EB010C94EB010C943605EB
:100020000C94EB010C94EB010C94A10E0C94130FA7
:100030000C94EB010C94EB010C94EB010C94EB0190
:100040000C94EB010C94EB010C94EB010C94EB0180
:100050000C94EB010C94EB010C94EB010C94EC046C
:100060000C94EB010C94EB010C94EB010C94EB0160
:100070000C94EB010C94EB010C94EB010C94EB0150
:100080000C94EB010C94EB010C94EB010C94EB0140
:100090000C94EB010C94EB010C94EB010C94EB0130
:1000A0000C94EB010C94EB010C94EB010A030D038F
:1000B000FC02000306032E032E032E031103150377
:1000C00019031F0323032E0329030000000024004B
:1000D00027002A002D003000040802011040804053
:1000E000102040804080080204018040201002015E
:1000F000108010204040200404040404030405027E
:1001000002020204030202020206060606060604B2
:100110000402020204045265717565737420444838
:10012000435000436F6E6E656374656421004661E1
:10013000696C656421000A417474656D7074696E40
:100140006720746F20636F6E6E65637420746F2018
:1001500000556E61626C6520746F20696E69746908
:10016000616C6973652074686520434333303030B7
:100170002120436865636B20796F757220776972FF
:10018000696E673F000A496E697469616C697369D9
:100190006E672074686520434333303030202E2E44
:1001A0002E0048656C6C6F2C204343333030302177
:1001B0000A000D0A0052656164696E6720436C6F26
:1001C000756420526573706F6E73652121210D0A6D
:1001D0000020646F6E652E0053656E64696E672043
:1001E000646174610020646F6E652E002E002E0025
:1001F000552D4170694B65793A20002E00486F7388
:10020000743A206170692E7965656C696E6B2E6E2B
:100210006574002E0020485454502F312E31003385
:1002200034353734352F73656E736F722F3338352D
:100230003039362F64617461706F696E7473005069
:100240004F5354202F76312E312F646576696365C4
:100250002F0053656E64696E67206865616465721E
:100260007300436F6E6E656374656420746F20590C
:1002700065656C696E6B207365727665722E004CD5
:10028000656E677468203D200000436F756C646E76
:100290002774207265736F6C766521006170692E1A
:1002A0007965656C696E6B2E6E6574202D3E20003D
:1002B00054727920746F20636F6E6E65637420745E
:1002C000686520636C6F7564207365727665720073
:1002D00000000000250028002B002E003100000047
:1002E00000002300260029002C002F00000000023F
:1002F00000090F0000030401000C000000000000D2
:100300000000000000000000000000080B000202D6
:10031000020100090400000102020000052400108F
:100320000105240101010424020605240600010739
:1003300005810310004009040100020A00000007C3
:100340000502024000000705830240000004030983
:100350000412010002EF0201404123368000010136
:1003600002030141726475696E6F204C4C43004179
:10037000726475696E6F204C656F6E6172646F0098
:100380000D0A0000222111241FBECFEFDAE0DEBFEC
:10039000CDBF12E0A0E0B1E0E2E1F8E402C00590D8
:1003A0000D92AA32B107D9F724E0AAE2B2E001C067
:1003B0001D92A539B207E1F711E0C3ECD1E004C00A
:1003C0002197FE010E94E823C23CD107C9F70E9491
:1003D00000190C9407240C940000823079F030F45A
:1003E000882351F0813069F4E9980BC0833041F0E3
:1003F000843039F4EE9805C0E89803C0EA9801C04B
:10040000EB98E82FF0E0EE0FFF1FE05FFE4F8CE06F
:1004100092E09183808308950895FC0110821182F7
:100420001282138280E090E00895FC011082118214
:100430001282138280E090E00895FC011082118204
:100440001282138280E090E008951092440280911D
:100450008004853010F40C94ED0108952CB5237FB1
:1004600024602CBD680F791F23E08617970751F091
:100470002EBD00000DB407FEFDCF3EB5FC0131934B
:10048000CF01F3CF0895680F791F8617970751F0B2
:10049000FC012191CF012EBD00000DB407FEFDCF60
:1004A0002EB5F3CF089580915302882361F09FB752
:1004B000F8942091530280914302213019F48DBBAE
:1004C0009FBF08958FBF089520915302222399F072
:1004D0004FB7F89420915302213059F42DB3209353
:1004E00043023DB320915202209523232DBB4FBFE1
:1004F00002C0409343028CBD9DBD0895FA0160384F
:1005000030E873078105910521F430917E04316054
:1005100009C0613030E873078105910531F43091ED
:100520007E04326030937E0421C0623030E873076D
:100530008105910531F420917E04297F20937E046A
:1005400027C0603130E873078105910521F480915F
:100550007E04846008C0693971058105910531F414
:1005600080917E04886080937E040895603430E832
:1005700073078105910561F4809142028F5F80933A
:100580004202422F50E0BF018EE292E00C94F3232E
:10059000611578488105910541F4E081E03228F445
:1005A000F0E0E751FD4F81E080830895809182045F
:1005B0000E94A811BC01990F880B990B08958823FC
:1005C00011F061E001C060E0809181040C94D111D0
:1005D00081E08093440280918004853010F40C9473
:1005E0003212089590E0FC013197EF30F105B0F53B
:1005F000EA5AFF4F0C94E823809180008F7703C064
:10060000809180008F7D809380000895809180008C
:10061000877FF9CF84B58F7702C084B58F7D84BD85
:100620000895809190008F7707C0809190008F7D12
:1006300003C080919000877F8093900008958091FF
:10064000C0008F7703C08091C0008F7D8093C00071
:1006500008958091C200877F8093C2000895CF9350
:10066000DF9390E0FC01E852FF4F2491FC01E95038
:10067000FF4F8491882361F190E0880F991FFC015E
:10068000E653FF4FC591D491FC01E053FD4FA59176
:10069000B491611109C09FB7F89488812095822395
:1006A0008883EC912E230BC0623061F49FB7F894DD
:1006B0003881822F809583238883EC912E2B2C9375
:1006C0009FBF06C08FB7F894E8812E2B28838FBF79
:1006D000DF91CF9108953FB7F89480914B029091AC
:1006E0004C02A0914D02B0914E0226B5A89B05C0C8
:1006F0002F3F19F00196A11DB11D3FBFBA2FA92FA1
:10070000982F8827820F911DA11DB11DBC01CD011D
:1007100042E0660F771F881F991F4A95D1F7089509
:100720008F929F92AF92BF92CF92DF92EF92FF9201
:100730006B017C010E946B034B015C01C114D1046D
:10074000E104F104F1F00E946B03DC01CB01881994
:100750009909AA09BB09883E9340A105B10570F328
:1007600021E0C21AD108E108F10888EE880E83E082
:10077000981EA11CB11CC114D104E104F10419F7A5
:10078000DDCFFF90EF90DF90CF90BF90AF909F9024
:100790008F9008950F931F93CF93DF93EC01CB01BC
:1007A0008170992721E0822721E028838C01060FA0
:1007B000171F19838170860F8A831B821C82809188
:1007C000E8028E3D09F0FFCF80915E0290915F02BA
:1007D000A0916002B09161020097A105B10509F4F2
:1007E000FFCF0197A105B10509F056C08CB58093E4
:1007F00057028DB5817080935602809155028CBD51
:1008000080915402882319F08DB5816002C08DB5A6
:100810008E7F8DBD84E591E00E94640260E080914E
:1008200083040E94D11161E070E080E090E00E94BA
:10083000900364E070E0CE010E94430261E070E04A
:1008400080E090E00E949003B8016F5F7F4FCE017F
:1008500004960E94430282E090E0A0E0B0E0809322
:100860005E0290935F02A0936002B093610261E028
:10087000809183040E94D1110E94530280915702FB
:100880008CBD80915602882319F08DB5816002C01D
:100890008DB58E7F8DBD7FC0E0911304F09114045F
:1008A000099580915E0290915F02A0916002B091E3
:1008B000610282309105A105B105D9F783E090E08E
:1008C000A0E0B0E080935E0290935F02A09360028C
:1008D000B0936102D0936302C09362020B5F1F4F1B
:1008E00010935B0200935A028CB5809357028DB52A
:1008F000817080935602809155028CBD8091540284
:10090000882319F08DB5816002C08DB58E7F8DBDB5
:1009100084E591E00E94640260E0809183040E947B
:10092000D111E0911104F09112040995E0910F04A6
:10093000F09110040995672B682B692B61F5609184
:100940005A0270915B0280916202909163020E9450
:10095000430282E090E0A0E0B0E080935E029093DA
:100960005F02A0936002B093610261E08091830412
:100970000E94D1110E945302809157028CBD809138
:100980005602882319F08DB5816002C08DB58E7F27
:100990008DBD0E94E80280915E0290915F02A0915D
:1009A0006002B091610282309105A105B105D9F7CD
:1009B00060E070E0CB01DF91CF911F910F9108951E
:1009C0002FB7F894609147027091480280914902D4
:1009D00090914A022FBF08951F920F920FB60F9267
:1009E00011242F933F938F939F93AF93BF93809145
:1009F000470290914802A0914902B0914A02309179
:100A0000460223E0230F2D3720F40196A11DB11DCE
:100A100005C026E8230F0296A11DB11D20934602B2
:100A20008093470290934802A0934902B0934A02F0
:100A300080914B0290914C02A0914D02B0914E02D8
:100A40000196A11DB11D80934B0290934C02A0937F
:100A50004D02B0934E02BF91AF919F918F913F9104
:100A60002F910F900FBE0F901F9018951F920F920D
:100A70000FB60F9211242F933F934F935F936F9371
:100A80007F938F939F93AF93BF93EF93FF93E091E7
:100A90001801F09119010995FF91EF91BF91AF9164
:100AA0009F918F917F916F915F914F913F912F9186
:100AB0000F900FBE0F901F9018951F920F920FB6B8
:100AC0000F9211242F933F934F935F936F937F93D4
:100AD0008F939F93AF93BF93EF93FF93E091160192
:100AE000F09117010995FF91EF91BF91AF919F91FF
:100AF0008F917F916F915F914F913F912F910F90C7
:100B00000FBE0F901F9018951F920F920FB60F9265
:100B100011242F933F934F935F936F937F938F9302
:100B20009F93AF93BF93EF93FF93E0911401F091E4
:100B300015010995FF91EF91BF91AF919F918F9111
:100B40007F916F915F914F913F912F910F900FBEC9
:100B50000F901F9018951F920F920FB60F921124AD
:100B60002F933F934F935F936F937F938F939F93B5
:100B7000AF93BF93EF93FF93E0911201F0911301B4
:100B80000995FF91EF91BF91AF919F918F917F91C7
:100B90006F915F914F913F912F910F900FBE0F90EA
:100BA0001F9018951F920F920FB60F9211242F933A
:100BB0003F934F935F936F937F938F939F93AF93E5
:100BC000BF93EF93FF93E0911001F091110109950C
:100BD000FF91EF91BF91AF919F918F917F916F9115
:100BE0005F914F913F912F910F900FBE0F901F90EB
:100BF00018958F929F92AF92BF92CF92DF92EF9211
:100C0000FF926830710581059105B0F522303105FC
:100C10004105510588F5E1E0F0E0062E02C0EE0F37
:100C2000FF1F0A94E2F7E095F0956F01FF0FEE08C1
:100C3000FF088090000190900101A0900201B09007
:100C40000301C820D920EA20FB2049015A0104C031
:100C5000880C991CAA1CBB1C6A95D2F7D701C60147
:100C600088299929AA29BB29809300019093010121
:100C7000A0930201B0930301FF90EF90DF90CF901B
:100C8000BF90AF909F908F900895FB0121E0258346
:100C900086839783408750E0BA016C5F7F4FCF0116
:100CA0000E94CA0380E090E008959093000480932E
:100CB000FF03CB010C9471120F931F93FC01E60FFD
:100CC000F71F438150E060E070E0342F22271127A6
:100CD00000279281492F50E060E070E0BA0155276B
:100CE0004427400F511F621F731F8081480F511D01
:100CF000611D711D818190E0A0E0B0E0BA2FA92FA5
:100D0000982F88278A019B01080F191F2A1F3B1F54
:100D1000C901B8011F910F910895FC01E60FF71F5B
:100D20009181892F90E0982F88272081820F911D33
:100D300008958F929F92AF92BF92CF92DF92EF92DF
:100D4000FF920F931F93CF93DF93CDB7DEB76597D5
:100D50000FB6F894DEBF0FBECDBF8C0161E070E02E
:100D60000E948D066C01E12CF12C96FF69C0811563
:100D700021E4920709F064C065E070E0C8010E94B8
:100D80008D064C01095F1F4FA12CB12CC12CD12C19
:100D90007601A814B90479F062E070E0C8010E94FD
:100DA0008D06C80ED91EE11CF11C0C5F1F4F8FEF82
:100DB000A81AB80AEECF80911B0490911C048C0DE8
:100DC0009D1D90931C0480931B0480912704909197
:100DD0002804A0912904B0912A04C80ED91EEA1E45
:100DE000FB1EC0922704D0922804E0922904F092BE
:100DF0002A0440912704509128046091290470919D
:100E00002A048091230490912404A0912504B09198
:100E10002604481759076A077B0709F019C1809112
:100E20002B04882309F414C1E0910D04F0910E0401
:100E300020E040E050E069E970E080E090E0C7C069
:100E400097FFC7C08031E0E89E0781F168F48130E8
:100E500020E8920708F401C18330E0E89E07B8F06B
:100E600084309048A1F0F9C0803820E8920779F0EA
:100E700028F48034904809F45AC0EFC0811522E864
:100E8000920729F08115984809F48DC0E6C0809139
:100E90000D0490910E04892B09F4DAC0E0910D0441
:100EA000F0910E0420E040E050E08FC0D80115968C
:100EB000FE013196CE010596AF012D912193E817E1
:100EC000F907D9F7F80181858D8382858E83838523
:100ED0008F83848588873D96DE011996C8014196E7
:100EE00021912D93E817F907D9F7DE011D96C80166
:100EF000459621912D93E817F907D9F7DE01519610
:100F0000C801499621912D93E817F907D9F7F801FF
:100F100084818D8B80910D0490910E04892B09F4AE
:100F200097C0E0910D04F0910E0425E14EC00B5FD7
:100F30001F4F60E070E0C8010E945C0669837A83FD
:100F40008B839C8364E070E0C8010E945C066D8323
:100F50007E838F83988768E070E0C8010E945C06FA
:100F600069877A878B879C876CE070E0C8010E9454
:100F70005C066D877E878F87988B60E170E0C80183
:100F80000E945C06698B7A8B8B8B9C8B80910D0405
:100F900090910E04892B09F45BC0E0910D04F0914F
:100FA0000E0424E10FC0F8018581898380910D042E
:100FB00090910E04892B09F44BC0E0910D04F0913F
:100FC0000E0421E0AE014F5F5F4FC701B6010995E6
:100FD0003FC0F3E0CF16F0E1DF06E104F10421F0B9
:100FE0008E5090410297C8F5780125E0E20EF11C81
:100FF00064E070E0C7010E945C06673C7F4F8F4F42
:101000009F4F59F5F801848190E0A0E0B0E0809313
:10101000170490931804A0931904B0931A0460E085
:1010200070E0C7010E945C064B015C0164E070E067
:10103000C7010E945C06673C7F4F8F4F9F4F41F472
:1010400021E030E040E050E0C501B4010E94F90524
:1010500061E070E080E090E003C060E070E0CB0110
:1010600065960FB6F894DEBF0FBECDBFDF91CF916E
:101070001F910F91FF90EF90DF90CF90BF90AF90B6
:101080009F908F9008950F931F93CF93DF9381E0EC
:101090008093450280915E0290915F02A091600270
:1010A000B09161020097A105B10569F481E090E07B
:1010B000A0E0B0E080935E0290935F02A093600294
:1010C000B0936102F3C082309105A105B10509F02A
:1010D000BFC086E090E0A0E0B0E080935E02909315
:1010E0005F02A0936002B09361028CB580935702B7
:1010F0008DB5817080935602809155028CBD809190
:101100005402882319F08DB5816002C08DB58E7FA1
:101110008DBD84E591E00E94640260E080918304CB
:101120000E94D1116AE070E08091640290916502A2
:101130000E942E0288E090E0A0E0B0E080935E0282
:1011400090935F02A0936002B0936102C091640229
:10115000D09165028D81823019F08430E1F03EC07B
:1011600063E070E0CE0105960E948D069C01BC01F3
:1011700080E090E020FD05C06F5F7F4F8F4F9F4F55
:1011800005C0611571058105910541F1CE010A96F1
:101190000E942E0223C0088510E020E030E0C90143
:1011A000B801615071098109910960FF02C0C9014C
:1011B000B801611571058105910521F0CE010A96EE
:1011C0000E942E0288E090E0A0E0B0E080935E02F2
:1011D00090935F02A0936002B09361021092440268
:1011E00080918004853010F40E94ED0161E08091CF
:1011F00083040E94D1110E945302809157028CBD3A
:1012000080915602882319F08DB5816002C08DB59A
:101210008E7F8DBD8091640290916502FC01EE5736
:10122000FF4F20812E3D09F0FFCF42E050E060E00B
:1012300070E040935E0250935F026093600270938F
:101240006102E0915802F0915902059609952EC06D
:101250000397A105B10551F560915A0270915B02A7
:1012600080916202909163020E94430282E090E0CA
:10127000A0E0B0E080935E0290935F02A0936002D2
:10128000B093610261E0809183040E94D1110E94B9
:101290005302809157028CBD80915602882319F029
:1012A0008DB5816002C08DB58E7F8DBD10924502D7
:1012B000DF91CF911F910F910895FC0140835183DD
:1012C00062837383049608952F923F924F925F92A8
:1012D0006F927F928F929F92AF92BF92CF92DF9246
:1012E000EF92FF920F931F93CF93DF93CDB7DEB7AB
:1012F00068970FB6F894DEBF0FBECDBF6D877E87AF
:101300008F8B988F1A01480159012B010E94E0042C
:101310006F87788B898B9A8B81E090E00D8402C077
:10132000880F991F0A94E2F79C01990F440B550B03
:101330002B8B3C8B4D8B5E8B052C000C6608770845
:101340008091170490911804A0911904B0911A0487
:10135000892B8A2B8B2BC9F04091170450911804CC
:101360006091190470911A04CA0150939404409337
:1013700093041092170410921804109219041092FA
:101380001A04009709F43FC09FC038E04316510487
:101390006104710408F093C08091000190910101F3
:1013A000A0910201B09103012B893C894D895E898E
:1013B00082239323A423B523892B8A2B8B2B09F01B
:1013C0007EC00E94E004DC01CB012F853889498969
:1013D0005A89821B930BA40BB50B81339547A1054A
:1013E000B10508F06FC080911B0490911C04892BFB
:1013F00009F4A6CF80911B0490911C04019790934F
:101400001C0480931B048091230490912404A091D8
:101410002504B09126040196A11DB11D80932304DB
:1014200090932404A0932504B0932604009105040E
:10143000109106044D855E856F89788DC8010A96E6
:101440000E945D094CE050E060E070E00E945D09A0
:10145000B501A4010E945D09B701A6010E945D09C2
:101460009801265E3F4FF101CF0182199309092EA1
:10147000000CAA0BBB0B88159905AA05BB052CF41B
:101480008191D9018D939D01EFCF82E0F801858391
:1014900081E8868380E18783C401409680879187B5
:1014A000B4016B5E7F4FC8010E94CA03BE016F5F2B
:1014B0007F4F83E090E10E945506C40105C08FEF85
:1014C0009FEF02C08DEF9FEF68960FB6F894DEBFD6
:1014D0000FBECDBFDF91CF911F910F91FF90EF9085
:1014E000DF90CF90BF90AF909F908F907F906F9044
:1014F0005F904F903F902F900895CF92DF92EF92A0
:10150000FF920F931F93CF93DF931F92CDB7DEB758
:101510006983FC01E95BFF4F60817181072E000C3C
:10152000880B990BC12CD12C760101E010E020E052
:1015300030E0AE014F5F5F4F0E94640997FF02C029
:1015400080E090E00F90DF91CF911F910F91FF907D
:10155000EF90DF90CF900895CF92DF92EF92FF92BD
:101560000F931F93CF93DF9300D000D0CDB7DEB79A
:101570006B017C018FEF9FEFDC0189839A83AB8342
:10158000BC830091050410910604B701A601C801AF
:1015900009960E945D0944E0B8018BE090E10E9449
:1015A0004506BE016F5F7F4F8BE090E10E945506BC
:1015B00009811A812B813C81109394040093930438
:1015C00088E0C816D104E104F10488F581E090E0D8
:1015D0000C2C02C0880F991F0A94E2F78095909511
:1015E000092E000CAA0BBB0B409100015091010188
:1015F000609102017091030184239523A623B723F0
:1016000041E050E060E070E004C0440F551F661FE9
:10161000771FCA94D2F7842B952BA62BB72B8093D8
:10162000000190930101A0930201B0930301C9014D
:10163000B8010F900F900F900F90DF91CF911F91F5
:101640000F91FF90EF90DF90CF90089580918204EA
:101650000E94A811892B49F480914502811105C08F
:101660008091440281110C94430808958F929F92B7
:10167000AF92BF92CF92DF92EF92FF920F931F93A0
:10168000CF93DF938B01BA01E90123E0F8012583B1
:101690008683CE01029687839087C8010B96C93E48
:1016A000F3E0DF07C0F4F801C187D287AE010E94E2
:1016B000F323BE016A5F7F4FC801DF91CF911F9175
:1016C0000F91FF90EF90DF90CF90BF90AF909F90E1
:1016D0008F900C94CA0338EEF8013187228728EEE8
:1016E00033E0FA01DC0101900D9221503040D9F72E
:1016F000C85ED3406A01F8E1CF1AFCEFDF0A6EEE54
:1017000073E0C8010E94CA03480127E0820E911CC1
:10171000580135E0A30EB11C0E94260BC93E83E0A0
:10172000D80738F0C85ED34088EEE82E83E0F82E64
:1017300003C07E01C0E0D0E0F801F682E582A70197
:10174000B601C4010E94F323CE0CDF1CB7016E5F0B
:101750007F4FC5010E94CA032097F1F6DF91CF9118
:101760001F910F91FF90EF90DF90CF90BF90AF90BF
:101770009F908F90089581E080934402809180042F
:10178000853010F40C943212089521E030E030934B
:101790000204209301049093040480930304809135
:1017A000010490910204892BA9F080910304909187
:1017B0000404FC012081243069F40E949906613000
:1017C00071058105910531F4109202041092010413
:1017D0000C94BB0B08950F931F93CF93DF93CDB75A
:1017E000DEB764970FB6F894DEBF0FBECDBFFC0125
:1017F000E95BFF4F4081518157FD98C032972081AE
:101800003181121613065CF431978081682F70E0E5
:101810006217730724F4922F981B892F88C0198AA6
:101820001A8A1B8A1C8AFA0185E0F695E7958A9543
:10183000E1F7EE0FFF1FEE0FFF1F81E090E08C0F2E
:101840009D1FE80FF91F9A012F71332781E090E067
:10185000A0E0B0E004C0880F991FAA1FBB1F2A9503
:10186000D2F7808B918BA28BB38B009105041091E2
:1018700006044F5F5F4F052E000C660B770BC80107
:1018800009960E945D09FC0184E180831182128225
:1018900013828483158216821782808711861286AE
:1018A0001386848715861686178640E050E0BA01B5
:1018B000CF0140960E945D0949895A896B897C89CC
:1018C0000E945D0940E050E0BA010E945D0940E0DD
:1018D00050E0BA010E945D0940E050E0BA010E9468
:1018E0005D0948E853E160E070E00E945D094CE268
:1018F000B80188E090E10E944506BE016F5F7F4F0E
:1019000088E090E10E94550689819A81AB81BC8173
:10191000B7FD02C09C0106C0909394048093930489
:101920002FEF3FEF81E02130310509F080E0649630
:101930000FB6F894DEBF0FBECDBFDF91CF911F91E0
:101940000F910895CF93DF93EC01C95BDF4F28819E
:10195000398137FD1DC00E94EB0B811108C06881E1
:101960007981FB01E751FD4F8081811102C081E047
:1019700010C0072E000C880B990B0E94AC0AE8815E
:10198000F981E751FD4F10828FEF9FEF9983888394
:1019900080E0DF91CF9108954091B3035091B4035B
:1019A0002091B1033091B20342175307B4F49091E0
:1019B000E8009570E1F39091E80092FD19C08093E2
:1019C000F1008091B3039091B40301968F7399272E
:1019D000892B19F48EEF8093E8008091B3039091E6
:1019E000B40301969093B4038093B30381E0089508
:1019F00080E00895DF92EF92FF920F931F93CF93B1
:101A0000DF93D82E8A017B01E40EF51EEB01CE1583
:101A1000DF0571F0D7FE03C0FE01849101C088810B
:101A20000E94CC0C21968111F2CF8FEF9FEF01C065
:101A3000C801DF91CF911F910F91FF90EF90DF9040
:101A40000895615030F02091F100FC01208301964F
:101A5000F8CF289884E6809385040895CF92DF928A
:101A6000EF92FF920F931F93CF93DF936C017A0154
:101A70008B01C0E0D0E0CE15DF0589F0D8016D9173
:101A80008D01D601ED91FC910190F081E02DC60110
:101A90000995892B11F47E0102C02196ECCFC70174
:101AA000DF91CF911F910F91FF90EF90DF90CF903A
:101AB0000895CF93DF931F92CDB7DEB76983DC0122
:101AC000ED91FC910280F381E02D41E050E0BE01F8
:101AD0006F5F7F4F09950F90DF91CF91089583E05D
:101AE0008093E9008091F200882319F08AE38093C3
:101AF000E8000895FC018485958597FD0BC09FB78C
:101B0000F89482E08093E9008091F2009FBF90E01A
:101B1000019608959FB7F89482E08093E900809140
:101B2000F2009FBF90E008950E94EE230F931F9351
:101B3000CF93DF931F92CDB7DEB782E0898342E473
:101B400050E06BE073E080E80E94FA0C0E94EC1811
:101B5000DC0112960D911C9113970115110569F086
:101B6000D801ED91FC910280F381E02DBE016F5F01
:101B70007F4FC801099597FF07C089810F90DF91BA
:101B8000CF911F910F910895F80100851185E5CF40
:101B90007F928F929F92AF92BF92CF92DF92EF92FD
:101BA000FF920F931F93CF93DF936C015B017A0138
:101BB00080910F01882309F46BC0809186048823EB
:101BC00009F466C08091500280FF05C08091E0005A
:101BD00082608093E000E70110E00AEF83E0982E36
:101BE00090E4792E2AE3822E209709F448C08FB71B
:101BF000F8949092E9009091E80095FF06C09091CA
:101C0000F200272D291B922F01C090E08FBF911168
:101C10000AC0015009F43CC061E070E080E090E04F
:101C20000E949003E1CF292F30E0C217D3070CF4B4
:101C30009C2F8FB7F8949092E9002091E80025FF3F
:101C40001CC0292F30E0C21BD30BF501915020F0AE
:101C500041914093F100FACFA20EB31E112319F067
:101C60008092E80009C09091E80095FD06C080923E
:101C7000E80011E0209709F010E08FBFB5CF1111F7
:101C8000B6CF5D9884E68093B5031E141F0444F01C
:101C900081E090E0F6019383828380E090E001C0D0
:101CA000C701DF91CF911F910F91FF90EF90DF90CF
:101CB000CF90BF90AF909F908F907F900895CF93DB
:101CC000DF931F92CDB7DEB7FC018485958597FD24
:101CD00005C02FEF3FEF358724870BC0CE0101965B
:101CE0000E94C218019719F4898190E002C08FEF19
:101CF0009FEF0F90DF91CF9108950F931F93CF9394
:101D0000DF931F92CDB7DEB78C01FC0184859585EA
:101D100097FF0EC0CE0101960E94C218019719F4D8
:101D2000298130E002C02FEF3FEFF801358724878B
:101D3000F801848595850F90DF91CF911F910F91C8
:101D400008951F920F920FB60F9211248F939F93B5
:101D50008091E1009091E100937F9093E10083FFF7
:101D60000FC01092E90091E09093EB001092EC000C
:101D700092E39093ED001092860498E09093F00027
:101D800082FF20C093E09093E9009091F2009923A4
:101D900019F09AE39093E8009091B503992339F0F4
:101DA0009091B50391509093B503992389F1909147
:101DB0008504992339F0909185049150909385047E
:101DC000992341F184FF10C08091E2008E7E8160F2
:101DD0008093E2008091E1008F7E8093E10080910A
:101DE00050028E7E806111C080FF16C08091E2009B
:101DF0008E7E80618093E2008091E1008E7E8093F0
:101E0000E100809150028E7E81608093500204C078
:101E10005D9ACDCF289AD6CF9F918F910F900FBE0C
:101E20000F901F9018951F920F920FB60F921124CA
:101E3000CF92DF92EF92FF920F931F932F933F93D6
:101E40004F935F936F937F938F939F93AF93BF93C2
:101E5000EF93FF93CF93DF93CDB7DEB76C97DEBFE1
:101E6000CDBF1092E9008091E80083FFEDC168E0EA
:101E7000CE0145960E94210D82EF8093E8008D8966
:101E800087FF05C09091E80090FFFCCF03C09EEF54
:101E90009093E800982F907609F0C6C09E892F890C
:101EA000188D91110CC0803829F4809151028093D3
:101EB000F10002C01092F1001092F10048C1422FCF
:101EC00050E0512B913051F4811141C14130510505
:101ED00009F03DC1809151028D7F0BC0933061F4B8
:101EE000811135C14130510509F031C18091510254
:101EF0008260809351022BC1953041F48091E800BB
:101F000080FFFCCF20682093E30021C1963009F0C8
:101F10005FC0EB8CFC8C1092E9001092B40310921D
:101F2000B303123091F51092B2031092B1030E94E4
:101F3000960D99E0BE016F5F7F4FDB01E92F1D9287
:101F4000EA95E9F799831A8391E09E8390EA98874E
:101F50009AEF99872091B3033091B403275F3F4FE5
:101F60003C832B838D831092E9001092B40310926E
:101F7000B303F092B203E092B10349E050E080E095
:101F80000E94FA0C0E94960DE2C0F092B203E09219
:101F9000B1030E94EC18DC011296ED90FC901397AF
:101FA000E114F10409F4C0C0D701ED91FC91048063
:101FB000F581E02DBE016B5E7F4FC701099500974B
:101FC00019F00CF0C4C0C7C0F701E084F184E8CF79
:101FD000973009F4C0C0983021F481E08093F1007B
:101FE000B6C0993009F0B3C0837009F0B4C0E3E221
:101FF000F1E081E021E036E39081992361F0809364
:10200000E9002093EB0091919093EC003093ED0068
:102010008F5F873089F78EE78093EA001092EA009D
:102020008F898093860493C08B8D9C8D1092E900DC
:102030001092B4031092B3039093B2038093B10350
:10204000898D811156C08E899D89913A59F48132CA
:1020500009F081C047E050E068E071E080E00E9454
:10206000FA0C75C0913209F076C0833289F4888DFC
:1020700090E0982F88272F89822BA0E0B0E08093F2
:10208000040190930501A0930601B09307015FC07E
:10209000803269F48091E80082FFFCCF67E088E03D
:1020A00091E00E94210D8BEF8093E80006C0823200
:1020B00009F04DC08F8980930F0180914F028823D2
:1020C00019F0EEEFFAE002C0E0E0F8E080910801DC
:1020D00090910901A0910A01B0910B01803B9440BD
:1020E000A105B10509F07BC080910F0180FF93C06D
:1020F00076C00E94EC18DC0112960D911C9113978A
:102100000115110541F1D801ED91FC910190F0818B
:10211000E02DBE016B5E7F4FC8010995811117C08C
:10212000F80100851185ECCF113009F44EC0133051
:1021300091F48F89882309F445C0823081F440E806
:1021400060E18FE693E00E94E520882321F08EEF86
:102150008093E80079C081E28093EB0075C0813004
:1021600029F440E86BE083E693E0EDCF833099F704
:102170000E94EC18DC011296ED90FC9013978E01F2
:102180000F5F1F4F6801E114F10479F0D701ED9161
:10219000FC910680F781E02DB801C7010995080F71
:1021A000111DF701E084F184EECFD8011C92F601F5
:1021B00001900020E9F73197BF016C197D0940E0DB
:1021C000C601C1CF6DE473E002C061E573E0611543
:1021D000710509F2FB01449150E080E840CF0FB651
:1021E000F894A895809160008861809360001092B7
:1021F00060000FBEA895EE3F2AE0F20739F080910B
:10220000FE0A9091FF0A91838083A1CF1092FF0A6A
:102210001092FE0A9CCFEE3F8AE0F80731F08081F1
:1022200091819093FF0A8093FE0A87E797E7918355
:1022300080839BE088E10FB6F894A89580936000B6
:102240000FBE9093600083CF6C960FB6F894DEBFFC
:102250000FBECDBFDF91CF91FF91EF91BF91AF91B5
:102260009F918F917F916F915F914F913F912F91AE
:102270001F910F91FF90EF90DF90CF900F900FBEC6
:102280000F901F901895DC01ED91FC910190F08169
:10229000E02D09946115710579F0FB010190002092
:1022A000E9F73197AF01461B570BDC01ED91FC912B
:1022B0000280F381E02D099480E090E008954F9230
:1022C0005F926F927F92EF92FF920F931F93CF9343
:1022D000DF93CDB7DEB7A1970FB6F894DEBF0FBE80
:1022E000CDBF7C01FA01CB0119A2223008F42AE00B
:1022F0008E010F5D1F4F422E512C612C712CBF019E
:10230000A30192010E948321F901CA010150110920
:102310006A3014F4605D01C0695CD8016C93232BB2
:10232000242B252B61F7B801C7010E944A11A19601
:102330000FB6F894DEBF0FBECDBFDF91CF911F91D6
:102340000F91FF90EF907F906F905F904F90089566
:10235000CF93DF93282F30E0F901E451FD4F8491B2
:10236000F901E852FF4FD491F901E950FF4FC491B0
:10237000CC2391F081110E94F202EC2FF0E0EE0FDD
:10238000FF1FE252FD4FA591B491EC91ED2381E046
:1023900090E021F480E002C080E090E0DF91CF91F6
:1023A00008951F93CF93DF93282F30E0F901E45174
:1023B000FD4F8491F901E852FF4FD491F901E950A2
:1023C000FF4FC491CC23C9F0162F81110E94F20255
:1023D000EC2FF0E0EE0FFF1FE053FD4FA591B491FD
:1023E0008FB7F894111105C09C91ED2FE095E9236A
:1023F00002C0EC91ED2BEC938FBFDF91CF911F9139
:1024000008950F931F93CF93DF938C01C0E0D0E02A
:10241000F801EC0FFD1F6491662371F0E0912C042C
:10242000F0912D040190F081E02D8CE294E009956B
:10243000892B11F02196ECCFCE01DF91CF911F9126
:102440000F910895CF93DF930E940112EC016AE986
:1024500071E08CE294E00E944A118C0F9D1FDF9185
:10246000CF910895E82FF0E0EE0FFF1FE05FFE4FE1
:1024700023E438E0318320838230D9F028F48823A4
:1024800041F0813071F008958330D9F0843009F142
:102490000895809169008C7F826080936900E89A3A
:1024A000089580916900837F886080936900E99A2C
:1024B0000895809169008F7C806280936900EA9A18
:1024C0000895809169008F73806880936900EB9A0A
:1024D000089580916A008F7C806280936A00EE9AF2
:1024E00008956F927F928F929F92AF92BF92CF92F8
:1024F000DF92EF92FF920F931F93CF93DF9300D061
:1025000000D0CDB7DEB77C01C12CD12C80E1782E74
:1025100096E2692E0E94260B80910104909102049C
:10252000892BC1F3A0900304B0900404F5018081CD
:10253000843009F01BC261E070E0C5010E948D0685
:102540006C01C5010E949906672B682B692B09F065
:1025500001C285010B5F1F4FF8E0CF16F0E1DF06E7
:1025600008F077C046E0C41640E1D40608F0FEC08B
:1025700082E0C816D80609F4F9C000F5FDE0CF16D0
:10258000D10480F448E0C416D10408F0EFC081E023
:10259000C816D10408F4DEC1E7E0CE16D10408F075
:1025A00060C1E4C0FDE0CF16D10409F4DAC041E017
:1025B000C41642E0D40609F4D4C0CCC183E0C816E6
:1025C00080E1D80610F5E1E0CE16E0E1DE0608F085
:1025D000CDC0F5E0CF16F2E0DF0608F4C2C047E058
:1025E000C41642E0D40609F0B5C1F5018481F701B3
:1025F00081937F0160E070E0C8010E945C06AB013E
:10260000BC01C7010E945D09A5C184E0C81680E134
:10261000D80609F4CCC008F4FDC060E070E0C80141
:102620000E945C06F701608371838283938364E078
:1026300070E0C8010E945C06F7016483758386839D
:102640009783F8E0EF0EF11CF5013D96D701872D39
:102650003BC1F1E1CF16F0E1DF0609F482C008F0DA
:102660004BC08BE0C81680E1D80609F47FC0A8F5FE
:10267000F9E0CF16F0E1DF0609F478C008F0E2C017
:1026800060E070E0C8010E945C06F701608371831E
:102690008283938364E070E0C8010E945C06F701C6
:1026A000648375838683978368E070E0C8010E9425
:1026B0005C06F70160877187828793874701FCE09A
:1026C0008F0E911C6CE070E0C8010E945C06F7015F
:1026D00064877587868797873CC18FE0C81680E13D
:1026E000D80609F497C008F04CC0FDE0CF16F0E121
:1026F000DF0609F45CC02EC146E0C41640E2D406F1
:1027000081F168F4E1E0CE16E0E2DE0608F422C1D1
:10271000F5E0CF16F0E2DF0608F0DBC022C048E0AB
:10272000C41640E2D40608F415C18AE0C81680E257
:10273000D806B8F0EBE0CE16E0E4DE0609F00AC1F8
:10274000F501858190E090931C0480931B0461E067
:1027500070E0C8010E948D0690931E0480931D04B2
:10276000F9C0F5018481F7018083F4C060E070E076
:10277000C8010E945C06F7016083718382839383A2
:10278000E9C060E070E0C8010E945C06F701619357
:102790007193819391934F0164E070E0C8010E94AE
:1027A0005C06F7016483758386839783D2C060E0FB
:1027B00070E0C8010E945C06F70160837183828328
:1027C000938364E070E0C8010E945C06F7016483B3
:1027D0007583868397834701F8E08F0E911C68E02C
:1027E00070E0C8010E945C06F701608771878287EC
:1027F00093870485158526853785073C1F4F2F4F06
:102800003F4F09F0A6C021E030E040E050E00E94D8
:10281000F9059FC060E070E0C8010E945C06F70106
:10282000608371838283938364E070E0C8010E94B7
:102830005C06F7016483758386839783F8E0EF0E67
:10284000F11C88C0F5018481F7018483F50185813D
:102850009681A781B085F70180839183A283B3839A
:1028600079C060E070E0C8010E945C06F7016083F7
:1028700071838283938364E070E0C8010E945C06E8
:10288000F701648375838683978368E070E0C801ED
:102890000E948D06A0E0B0E0F70180879187A287B3
:1028A000B3876AE070E0C8010E948D06A0E0B0E046
:1028B000F70182879387A487B587FCE0EF0EF11CB0
:1028C000F5017196D701862D01900D928A95E1F759
:1028D00041C0F801D701C501099621912D93E81750
:1028E000F907D9F7D7011496C5010D9621912D93BB
:1028F000E817F907D9F7D7011896C5014196219134
:102900002D93E817F907D9F7D7011C96C50145960D
:1029100021912D93E817F907D9F7D7015096C501F2
:10292000499621912D93E817F907D9F7D7015496C5
:10293000C5014F9621912D93E817F907D9F7D701D3
:102940005A96C501CF9621912D93E817F907D9F72B
:1029500001C074018091FF0390910004C816D9064C
:10296000D9F4109200041092FF0316C063E070E0E7
:10297000C5010E948D06F501628170E0AC01461B25
:10298000570B6B5F7F4F6A0D7B1DC7010E94F323BE
:102990001092220410922104109202041092010459
:1029A0000E94BB0BF5018081843009F077C0C1140F
:1029B000F0E1DF0609F072C019821A821B821C82C4
:1029C000F5018581823039F1833009F445C08130C9
:1029D00009F064C08091090490910A04892B89F060
:1029E000E0910904F0910A04CE010196099500973F
:1029F00041F0609105047091060429813A81AC018F
:102A000008C0609105047091060420E030E040E0C9
:102A100050E081E041C08091070490910804892B27
:102A200089F0E0910704F0910804CE010196099520
:102A3000009741F0609105047091060429813A8164
:102A4000AC0108C0609105047091060420E030E0FC
:102A500040E050E082E020C080910B0490910C0493
:102A6000892B89F0E0910B04F0910C04CE010196C2
:102A70000995009741F06091050470910604298141
:102A80003A81AC0108C0609105047091060420E011
:102A900030E040E050E083E00E94360B8091FF037D
:102AA00090910004892B09F035CD809121049091FB
:102AB0002204892B09F02ECD80E090E00F900F903A
:102AC0000F900F90DF91CF911F910F91FF90EF909A
:102AD000DF90CF90BF90AF909F908F907F906F903E
:102AE0000895EF92FF920F931F93CF93DF93CDB78B
:102AF000DEB7C454D1090FB6F894DEBF0FBECDBF08
:102B000020E4E9E2F1E0DE01119601900D922A95B0
:102B1000E1F720918404222309F465C0AB01BC01D4
:102B2000E0900504F090060484E2D70119968C9396
:102B300019971A961C921A971B961C921B971C9613
:102B40001C92C7010D960E945D09FC0184E18083FF
:102B500011821282138284E6848315821682178280
:102B600085E080871186128613868FEF84878FE138
:102B700085871686178648E85FEF6FEF7FEFCF01F6
:102B800040960E945D09FC0110821182128213821C
:102B90008CE2848381E08583168217828E010F5F29
:102BA0001F4F3896CE018F5B9F4F0817190729F0EA
:102BB000D8012D918D012193F8CF44E6B70183E030
:102BC00090E00E944506B80183E090E00E9455061F
:102BD000F801408151816281738121E0452B462BB0
:102BE000472B09F020E0822FCC5BDF4F0FB6F89423
:102BF000DEBF0FBECDBFDF91CF911F910F91FF9030
:102C0000EF9008952F923F924F925F926F927F9232
:102C10008F929F92AF92BF92CF92DF92EF92FF92EC
:102C20000F931F93CF93DF93CDB7DEB72C970FB6DB
:102C3000F894DEBF0FBECDBF4B015C0129013A0104
:102C4000CE0101961C0186E0F10111928A95E9F707
:102C50008FEF9FEFDC018F839887A987BA878091D8
:102C60000504909106049C878B878CE1EB85FC859D
:102C70008187128613861486BA01A901CF010D96A9
:102C80000E945D09B501A4010E945D09B301A20182
:102C9000405F5F4F6F4F7F4F0E945D09B701A601F4
:102CA0000E945D09FC0110821182F101DC01129683
:102CB0005E0127E0A20EB11C21912D93EA15FB05C0
:102CC000D9F7FC013896AFEFB1E0AD014F5F51404D
:102CD000052E000C660B770B441555056605770528
:102CE0001CF48D918193F1CFC114D104E104F1045E
:102CF00079F54CE14C0D440D6B857C8581E090E0CD
:102D00000E944506B50181E090E00E9455066F8162
:102D1000788589859A8570939404609393042C96A2
:102D20000FB6F894DEBF0FBECDBFDF91CF911F91DC
:102D30000F91FF90EF90DF90CF90BF90AF909F905A
:102D40008F907F906F905F904F903F902F9008955D
:102D50000115110571F2D801AD01401B510B052E73
:102D6000000C660B770B4C155D056E057F050CF6A8
:102D70008D918193F1CF0F931F93CF93DF9300D069
:102D800000D0CDB7DEB7AB01BC018FEF9FEFDC0108
:102D900089839A83AB83BC83009105041091060458
:102DA000F8011186128613861486158616861786F4
:102DB000108AC80141960E945D094CE0B80184E088
:102DC00090E00E944506BE016F5F7F4F84E090E077
:102DD0000E94550669817A818B819C810F900F90AA
:102DE0000F900F90DF91CF911F910F9108954F9207
:102DF0005F926F927F928F929F92AF92BF92CF928B
:102E0000DF92EF92FF926B017C01B42E9B01AC012B
:102E10000E94E323882319F06EE172E027C02601A7
:102E20003701E89477F82FEF3FEF4FE75FE7C301F3
:102E3000B2010E94E32381110DC02FEF3FEF4FE756
:102E40005FE7C301B2010E94122218161CF462E26D
:102E500072E00CC02FEF3FEF4FE75FE4C701B60110
:102E60000E947123181694F466E272E08CE294E0FA
:102E7000FF90EF90DF90CF90BF90AF909F908F909A
:102E80007F906F905F904F900C944A112FEF3FEF1F
:102E90004FE75FECC701B6010E94122287FDE4CF25
:102EA00020E030E0A901C701B6010E94122287FF8D
:102EB0000BC06DE28CE294E00E9443114C01F7FAE2
:102EC000F094F7F8F09402C0812C912CA12C60E0D2
:102ED00070E080E09FE3AB1441F020E030E040E29E
:102EE00051E40E941722A394F6CF9B01AC01C701C5
:102EF000B6010E94A6212B013C010E9490226B0189
:102F00007C010E94BF229B01AC01C301B2010E945F
:102F1000A5212B013C012AE0B701A6018CE294E037
:102F20000E945F117C01E80CF91CBB2039F06EE2B5
:102F30008CE294E00E944311E80EF91EDB2CDD20A8
:102F400031F120E030E040E251E4C301B2010E94DF
:102F500076232B013C010E9490224B01A12CB12C25
:102F60002AE0B501A4018CE294E00E945F11E80E12
:102F7000F91EC501B4010E94BF229B01AC01C3012F
:102F8000B2010E94A5212B013C01DA94D8CFC701E0
:102F9000FF90EF90DF90CF90BF90AF909F908F9079
:102FA0007F906F905F904F9008958F929F92AF9215
:102FB000BF92CF92DF92EF92FF920F931F93CF9326
:102FC000DF93CDB7DEB7A0970FB6F894DEBF0FBE84
:102FD000CDBF4C01A12CB12C00E0F40184918823D9
:102FE00031F1E1E0F0E0EC0FFD1FE00FF11D808317
:102FF0000F5F003220F48FEF881A980AEECF6091AD
:10300000FD037091FE03072E000C880B990BC12C59
:10301000D12C760100E210E020E030E0AE014F5FFD
:103020005F4F0E946409A80EB91E00E0E4CF0023A0
:10303000A9F010E020E030E06091FD037091FE0304
:10304000072E000C880B990BC12CD12C7601AE01F8
:103050004F5F5F4F0E946409A80EB91EC501A0967C
:103060000FB6F894DEBF0FBECDBFDF91CF911F9199
:103070000F91FF90EF90DF90CF90BF90AF909F9017
:103080008F9008958F929F92CF92DF92EF92FF924E
:103090000F931F93AC01FC0101900020E9F73197D9
:1030A0008F01081B190B89F020E030E08090FD03B0
:1030B0009090FE03B401990C880B990BC12CD12C74
:1030C00076010E9464098C0102C000E010E080E8F3
:1030D00093E00E94D517800F911F1F910F91FF90D1
:1030E000EF90DF90CF909F908F9008958F929F9256
:1030F000CF92DF92EF92FF920F931F93CF93DF93C4
:10310000AC01FC0101900020E9F731978F01081B09
:10311000190B99F020E030E08090FD039090FE03C1
:10312000B401990C880B990BC12CD12C76010E940B
:103130006409EC01892B19F418C0C0E0D0E060915B
:10314000FD037091FE03072E000C880B990BC12C18
:10315000D12C760102E010E020E030E04AE951E0B5
:103160000E9464098C0F9D1F02C080E090E0DF91F7
:10317000CF911F910F91FF90EF90DF90CF909F9094
:103180008F900895FC0180918604811103C08FEF18
:103190009FEF08959FB7F89482E08093E900209113
:1031A000F20030E01216130614F421E030E021158D
:1031B000310559F0289884E6809385048091F100C8
:1031C00080838091F200882319F09FBFC901089580
:1031D0008BE68093E800F9CF80918B0481110DC0BC
:1031E00082E08093870484E08093880410928A04AC
:1031F0001092890481E080938B0487E894E008951D
:10320000CF93DF93CDB7DEB7C855D1090FB6F89489
:10321000DEBF0FBECDBF789484B5826084BD84B517
:10322000816084BD85B5826085BD85B5816085BDC1
:1032300080916E00816080936E0010928100809179
:103240008100826080938100809181008160809301
:103250008100809180008160809380008091910046
:1032600082608093910080919100816080939100B1
:10327000809190008160809390008091C100846073
:103280008093C1008091C10082608093C1008091D1
:10329000C10081608093C1008091C30081608093F0
:1032A000C3008091C00082608093C0008091C20002
:1032B00081608093C20080917A00846080937A005C
:1032C00080917A00826080937A0080917A00816098
:1032D00080937A0080917A00806880937A001092BF
:1032E000860410925102109250028091D7008160A2
:1032F0008093D70080EA8093D80089B5806189BD2A
:1033000089B5826089BD09B400FEFDCF61E070E03F
:1033100080E090E00E9490038091D8008F7C8061D3
:103320008093D8008091E000807F8093E0008091BE
:10333000E1008E7E8093E1008DE08093E200559A5B
:10334000209AEEEFFFE7859194918B3F9C4D19F405
:1033500081E080934F028FEF9FEF90933904809329
:10336000380482EA91E00E94221285E891E00E94EE
:1033700022128091840481110DC290918204809167
:103380008004973011F484E00FC0933011F480E092
:103390000BC0923011F481E007C0911102C082E0AD
:1033A00003C0913009F483E0809380048F3F09F4D7
:1033B000ECC161E0809181040E942F0360E0809164
:1033C00081040E94D11164EF71E080E090E00E94DE
:1033D000900361E0809183040E942F0362E080915A
:1033E00082040E942F038CB5809357028DB58170A3
:1033F000809356021FB7F89480910903811127C06A
:10340000E8E0F1E08491E9EEF0E09491E82FF0E05B
:10341000EE0FFF1FE653FF4FA591B491EC91E92306
:1034200021F461E081E10E94D11161E081E10E941B
:103430002F038CB580618CBD8CB580648CBD61E040
:103440008FE00E942F0361E080E10E942F038091B2
:1034500009038F5F809309031FBF8CB5837F84604E
:103460008CBD8CB58F7D8CBD80917F049CB5282F41
:1034700023709C7F922B9CBD2DB582FB992790F9E0
:10348000822F8E7F892B8DBD8CB5809355028DB593
:10349000817080935402809180049FB7F8948230A9
:1034A00069F030F4882399F0813061F482E010C033
:1034B000833031F0843031F480E40AC084E008C005
:1034C00088E006C082E08093530280E001C081E082
:1034D00020915202822B80935202809153028111DB
:1034E00003C081E0809353029FBF61E08091830419
:1034F0000E94D111809157028CBD80915602882381
:1035000019F08DB5816002C08DB58E7F8DBD8DE0C7
:1035100092E090930804809307048DE192E09093E9
:103520000A048093090485E192E090930C0480934F
:103530000B0486ED92E09093100480930F0488EEC4
:1035400092E0909312048093110485E292E09093AC
:103550001404809313048FED92E0909316048093EB
:1035600015048EE792E090930E0480930D0481E0A1
:1035700080932B04109223041092240410922504AB
:103580001092260410922704109228041092290405
:1035900010922A04109200041092FF0310921C044F
:1035A00010921B0410921E0410921D04109220040D
:1035B00010921F04109222041092210410921704FA
:1035C000109218041092190410921A041092020416
:1035D000109201041092040410920304A6E6B2E0D3
:1035E000B0930604A093050410925E0210925F024D
:1035F00010926002109261022AE033E083E8F90140
:10360000982F11929A95E9F7FD0111928A95E9F7A1
:1036100085EC9BE0909359028093580210925B02D4
:1036200010925A0210926302109262023093650265
:103630002093640210925D0210925C028EED8093E2
:103640008C038093E802E0911104F0911204099533
:10365000E0910F04F091100409956B017C01E09159
:103660001504F091160481E00995CD28CE28CF28C5
:1036700009F478C0E0910F04F09110040995672BCC
:10368000682B692BB9F76091050470910604DB0182
:1036900019961C9241E080E090E40E94450660E0AB
:1036A00070E080E090E40E945506609105047091FE
:1036B000060440E08BE090E40E94450660E070E084
:1036C0008BE090E40E94550660E070E0CB010E9420
:1036D000BB16E0910504F09106048FEF81871286F6
:1036E00013861486CC24CA94DC2C7601C982DA8233
:1036F000EB82FC8244E0BF0186E090E00E94450638
:10370000BE016F5F7F4F86E090E00E94550611E09A
:1037100010932B04C982DA82EB82FC82E0900504CC
:10372000F090060444E052E860E070E0C7010996BA
:103730000E945D0944E0B70188E090E00E944506E0
:10374000BE016F5F7F4F88E090E00E94550689813F
:103750009A81AB81BC81892B8A2B8B2BB1F410937E
:10376000840418C0E0910F04F09110040995672BB0
:10377000682B692BB9F3E0910F04F09110040995BF
:10378000672B682B692BB9F77ECF81E591E00E940A
:103790002212FFCF86E391E00E9401126FEF71E0E9
:1037A0008CE294E00E944A116AE971E08CE294E0B4
:1037B0000E944A1180918404882309F4FEC30E9468
:1037C000260B60EA7FE080E090E00E94711564E9DA
:1037D00071E180E090E00E94900360E070E0CB0136
:1037E0000E947115809184048823A9F160E070E043
:1037F000CB010E94BB16672B682B692B61F564EF28
:1038000071E080E090E00E949003F8E0CF2ED12C90
:10381000E12CF12C01E811E022E130E040E050E041
:1038200063E070E080E090E00E940216672B682B56
:10383000692B89F408EE13E080917E0481FD0BC0B2
:103840000E94260B6AE070E080E090E00E94900306
:103850000150110989F780917E0481FFB0CF83E286
:1038600091E00E94221286E191E00E942212809152
:103870007E0482FD07C064E670E080E090E00E9474
:103880009003F5CF22242394312C88248394912C07
:10389000FE0131965F018091A903811113C010923E
:1038A000B9031092B8038EE191E09093B70380932F
:1038B000B6038FEF9FEF9093FE038093FD0381E0AB
:1038C0008093A90386EB93E00E94A20C811135C17D
:1038D0000E94E0040091A5031091A6032091A70384
:1038E0003091A803DC01CB01801B910BA20BB30B21
:1038F000893B9B40A105B10508F064C31EC18091BE
:103900008404811186C38AE892E00E94221264EF47
:1039100071E080E090E00E949003C090A103D090FD
:10392000A203E090A303F090A403C114D104E10426
:10393000F10429F380917C0490917D040097F1F1CA
:103940004F2D5527662777272AE00E945F116EE2E8
:1039500080917C0490917D040E9443114E2D50E093
:1039600060E070E02AE080917C0490917D040E94E8
:103970005F116EE280917C0490917D040E9443115E
:103980004D2D50E060E070E02AE080917C04909141
:103990007D040E945F116EE280917C0490917D0411
:1039A0000E944311B701A6015527662777272AE011
:1039B00080917C0490917D040E945F1189E892E0DF
:1039C0000E942212C090A103D090A203E090A30312
:1039D000F090A4038FEF9FEFDC0189839A83AB8380
:1039E000BC83009105041091060442E050E060E0C1
:1039F00070E0C80109960E945D0941E050E060E076
:103A000070E00E945D0946E050E060E070E00E94D6
:103A10005D094CE0B80181E090E10E944506B501E6
:103A200081E090E10E94550669817A818B819C81B9
:103A3000709394046093930420E030E0A9010E9405
:103A4000F90509811A812801012E000C6608770802
:103A50009FEF491659066906790609F459C0F8011D
:103A6000E751FD4F108280E1D5011D928A95E9F75B
:103A700082E090E09A83898380E58C83FD82EE82E8
:103A8000DF82C8868FEF9FEFDC012E968CAF9DAF53
:103A9000AEAFBFAF2E97E0900504F0900604B301DF
:103AA000A201C70109960E945D09FC0188E080839C
:103AB0001182128213828483158216821782D501A5
:103AC0003896CE0109962D912193A817B907D9F7F9
:103AD00044E1B70187E090E10E944506BE01665BC4
:103AE0007F4F87E090E10E9455062E968CAD9DADEC
:103AF000AEADBFAD2E9790939404809393048F3F07
:103B00009F4FAF4FBF4F31F4C301B2010E94AC0AC7
:103B10000FEF1FEF1093FE030093FD031092FC03C1
:103B20001092FB031092FA0380E4FE013596AAEB93
:103B3000B3E001900D928A95E1F786EB93E00E9445
:103B4000A20C882309F423C10E94E00400919D0384
:103B500010919E0320919F033091A003DC01CB01C3
:103B6000801B910BA20BB30B813D9740A105B105C2
:103B700008F40DC10E94E00460939D0370939E03BE
:103B800080939F039093A00319821A821B821C8248
:103B9000FE01359688E3DF011D928A95E9F762E11F
:103BA00072E0C5010E94FC23F50101900020E9F7B5
:103BB0008F01015011096091990370919A038091CE
:103BC0009B0390919C030E948922DC01CB014AE077
:103BD000B8010E944E216CE172E0C5010E94FC23F5
:103BE000F50101900020E9F731976F01CA18DB0851
:103BF0004AE0BE016A5A7F4FC6010E944E218FE7FC
:103C000092E00E9401120D2C000CEE08FF08F7FE56
:103C100051C26DE28CE294E00E9443114427552783
:103C2000BA014C195D096E097F092AE08CE294E023
:103C30000E945F116AE971E08CE294E00E944A11EF
:103C400082E692E00E94221282E592E00E94011236
:103C50008FE392E00E94D5178FE192E00E94D51782
:103C600085E192E00E94D51782EB91E00E94D51782
:103C700083E192E00E9401128DEF91E00E94D5173E
:103C800082EB91E00E94D5178BEF91E00E94011228
:103C900080EF91E00E94D5178DE991E00E9476189F
:103CA0008EEE91E00E9401126091FD037091FE037F
:103CB000072E000C880B990BC12CD12C760100E14A
:103CC00010E020E030E04EEB51E00E946409CE01AC
:103CD0008A5A9F4F0E94421887ED91E00E94761801
:103CE0008CEE91E00E94011285EE91E00E9422127A
:103CF000B5018CE294E00E944A116AE971E08CE21D
:103D000094E00E944A1188ED91E00E940112C501E1
:103D10000E94421881ED91E00E9422120E94E0046C
:103D20002B013C0185EB91E00E942212EE24EA94E3
:103D3000FE2C0E94E004DC01CB0184199509A60940
:103D4000B709803D9740A105B10508F420C268EE8F
:103D500073E080E090E00E9490036091FD03709119
:103D6000FE03072E000C880B990B0E94AC0A8FEF04
:103D70009FEF9093FE038093FD030E94E004609305
:103D8000A5037093A6038093A7039093A8030E94B2
:103D9000E0040091950310919603209197033091D0
:103DA0009803DC01CB01801B910BA20BB30B893E66
:103DB0009340A105B10508F4F8C00E94E0046093A7
:103DC00095037093960380939703909398036FECF9
:103DD00071E08CE294E00E944A1119821A821B82DF
:103DE0001C821D8261E08CE00E942F0360E08CE069
:103DF0000E94D11162E170E080E090E00E949003A7
:103E000061E08CE00E94D1118BE990E00197F1F71D
:103E100060E08CE00E942F0301E117E28CE00E9439
:103E2000A811892B31F401501109C1F78EEF9FEFD2
:103E30006CC001E117E28CE00E94A811019721F407
:103E400001501109C1F7F2CF08E210E047E0D42E8B
:103E5000C12C31E1E32E37E2F32E8CE00E94A81151
:103E6000892B29F421E0E21AF108B9F7DFCF0E948B
:103E70006B032B013C0121E1E22E27E2F22E8CE0C4
:103E80000E94A811019729F481E0E81AF108B9F716
:103E9000CDCF0E946B03DC01CB0184199509A609E3
:103EA000B7098997A105B10560F0F501EC0DF11D89
:103EB0002081C1010D2C01C0880F0A94EAF7822BE2
:103EC0008083D11004C0C39497E0D92E01C0DA9446
:103ED0000150110909F0BDCF8981282F30E03093BE
:103EE0009203209391032B81422F50E0509394032F
:103EF00040939303280F81E090E03D81321302C08C
:103F000080E090E09195819591098F3FAFEF9A07FE
:103F100029F0892B31F468ED71E005C06DED71E099
:103F200002C06EEE71E08CE294E00E944A11609152
:103F3000930370919403072E000C880B990B0E9439
:103F4000C1226093990370939A0380939B0390938B
:103F50009C036091910370919203072E000C880BD3
:103F6000990B0E94C12260938D0370938E038093FE
:103F70008F039093900341E00E94F7166AED71E081
:103F80008CE294E00E944A116091990370919A0327
:103F900080919B0390919C0341E00E94F7166AE98F
:103FA00071E08CE294E00E944A1180E090E0892B5D
:103FB00009F471CC0E9400006BCC8EE291E00E946B
:103FC0002212FFCF0E94E0046093A5037093A60322
:103FD0008093A7039093A80380EB92E00E942212A3
:103FE0006091FD037091FE03072E000C880B990B66
:103FF0000E94AC0A8FEF9FEF9093FE038093FD0326
:104000008CE992E00E9401120FEF1FEF88E0782EFA
:1040100084CC80917E0481FF76CC80917E0482FFE7
:1040200072CC1093940400939304E0900504F090F4
:104030000604D70119967C9219971A961C921A9722
:104040001B961C921B971C961C924FE050E060E060
:1040500070E0C7010D960E945D09EAE8F1E0219148
:10406000DC012D93CD01B1E0E939FB07C1F747E150
:10407000B70180E190E10E944506B50180E190E141
:104080000E94550689819A81AB81BC8190939404EA
:10409000809393044D815E816F8178854093A10365
:1040A0005093A2036093A3037093A403892B09F098
:1040B0002ECC29CC2AE0B701A601B8CD1092FA0384
:1040C0004091FB035091FC03141615060CF46DC0CF
:1040D0000E94260B00910504109106044091FD03F7
:1040E0005091FE03052E000C660B770BC801099654
:1040F0000E945D0940E450E060E070E00E945D09CC
:1041000040E050E0BA010E945D094CE0B80184E053
:1041100090E10E944506BE01665B7F4F84E090E11E
:104120000E94550662968CAD9DADAEADBFAD629757
:10413000181619061A061B0644F49092220480925F
:1041400021048AEB93E00E94711260968EAD9FADC0
:10415000609790939404809393049093FC038093CE
:10416000FB03C99609F0AACF6091FD037091FE038D
:10417000072E000C880B990B0E94AC0AF092FE03EC
:10418000E092FD0360E08CE294E00E94431186EB34
:1041900093E00E94A20C882309F4CBCD86EB93E038
:1041A0000E94EB0B81118CCFC4CD8091FA03282F94
:1041B00030E04217530709F48BCFF901EA54FC4F62
:1041C00064818F5F8093FA03DECFCF92DF92EF920C
:1041D000FF920F931F93CF93DF931F92CDB7DEB75C
:1041E000182F062FE42E862F880F8E5F99830E944A
:1041F000CC0C83E00E94CC0CF12EC12E9981D92EDB
:104200008C2D8F19801798F4F601E7FE02C0849177
:1042100001C080810E94CC0C182F80E00E94CC0C41
:104220008123FFEFCF1ADF0A8111EACF01C081E0BD
:104230000F90DF91CF911F910F91FF90EF90DF9042
:10424000CF900895ECE2F4E01382128288EE93E0BE
:10425000A0E0B0E084839583A683B7838DE691E0E8
:10426000918380838FEF9FEF9587848710928404DA
:104270008AE08093830487E08093820485E08093C2
:1042800081048FEF8093800484E080937F041092F8
:104290007E04F0937D04E0937C040895BB274A30AC
:1042A00031F4992322F4BDE2909581959F4F0C94AF
:1042B0005A21BB27FB015527AA27880F991FAA1F40
:1042C000A41710F0A41B83955051B9F7A05DAA3331
:1042D00008F0A95DA193009779F7B111B1931192FC
:1042E000CB010C947321DC01FC01672F71917723C2
:1042F000E1F7329704C07C916D9370836291AE17A1
:10430000BF07C8F30895A1E21A2EAA1BBB1BFD012B
:104310000DC0AA1FBB1FEE1FFF1FA217B307E407A4
:10432000F50720F0A21BB30BE40BF50B661F771FFC
:10433000881F991F1A9469F76095709580959095DC
:104340009B01AC01BD01CF0108955058BB27AA279E
:104350000E94BD210C9437230E94292338F00E942B
:10436000302320F039F49F3F19F426F40C942623CF
:104370000EF4E095E7FB0C942023E92F0E944823DC
:1043800058F3BA17620773078407950720F079F48A
:10439000A6F50C946A230EF4E0950B2EBA2FA02DEF
:1043A0000B01B90190010C01CA01A0011124FF27E2
:1043B000591B99F0593F50F4503E68F11A16F040DD
:1043C000A22F232F342F4427585FF3CF46953795DC
:1043D0002795A795F0405395C9F77EF41F16BA0BA1
:1043E000620B730B840BBAF09150A1F0FF0FBB1F4F
:1043F000661F771F881FC2F70EC0BA0F621F731F98
:10440000841F48F4879577956795B795F7959E3FF4
:1044100008F0B0CF9395880F08F09927EE0F979585
:10442000879508950E94FC2208F481E008950E9477
:104430002B220C9437230E94302358F00E9429230A
:1044400040F029F45F3F29F00C94202351110C9483
:104450006B230C9426230E94482368F39923B1F31D
:10446000552391F3951B550BBB27AA27621773079A
:10447000840738F09F5F5F4F220F331F441FAA1F2E
:10448000A9F335D00E2E3AF0E0E832D091505040EA
:10449000E695001CCAF72BD0FE2F29D0660F771F98
:1044A000881FBB1F261737074807AB07B0E809F07E
:1044B000BB0B802DBF01FF2793585F4F3AF09E3F03
:1044C000510578F00C9420230C946B235F3FE4F3A8
:1044D000983ED4F3869577956795B795F7959F5F46
:1044E000C9F7880F911D9695879597F90895E1E092
:1044F000660F771F881FBB1F621773078407BA07F1
:1045000020F0621B730B840BBA0BEE1F88F7E0954B
:1045100008950E9490226894B1110C946B23089521
:104520000E94502388F09F5798F0B92F9927B751D0
:10453000B0F0E1F0660F771F881F991F1AF0BA9547
:10454000C9F714C0B13091F00E946A23B1E0089518
:104550000C946A23672F782F8827B85F39F0B93F0A
:10456000CCF3869577956795B395D9F73EF49095FA
:104570008095709561957F4F8F4F9F4F0895E89478
:1045800009C097FB3EF490958095709561957F4F9B
:104590008F4F9F4F9923A9F0F92F96E9BB27939549
:1045A000F695879577956795B795F111F8CFFAF459
:1045B000BB0F11F460FF1BC06F5F7F4F8F4F9F4F8A
:1045C00016C0882311F096E911C0772321F09EE8E8
:1045D000872F762F05C0662371F096E8862F70E04E
:1045E00060E02AF09A95660F771F881FDAF7880F28
:1045F0009695879597F90895990F0008550FAA0B7E
:10460000E0E8FEEF16161706E807F907C0F01216E5
:104610001306E407F50798F0621B730B840B950BE8
:1046200039F40A2661F0232B242B252B21F408953D
:104630000A2609F4A140A6958FEF811D811D0895DA
:1046400097F99F6780E870E060E008959FEF80EC45
:10465000089500240A9416161706180609060895E8
:1046600000240A9412161306140605060895092E4E
:104670000394000C11F4882352F0BB0F40F4BF2BBD
:1046800011F460FF04C06F5F7F4F8F4F9F4F0895FD
:1046900057FD9058440F551F59F05F3F71F04795F3
:1046A000880F97FB991F61F09F3F79F087950895D8
:1046B000121613061406551FF2CF4695F1DF08C0F7
:1046C000161617061806991FF1CF86957105610514
:1046D00008940895E894BB2766277727CB0197F9BC
:1046E00008950E94FC2208F48FEF08950E94892308
:1046F0000C9437230E94292338F00E94302320F0A5
:10470000952311F00C9420230C94262311240C944F
:104710006B230E94482370F3959FC1F3950F50E0DF
:10472000551F629FF001729FBB27F00DB11D639F63
:10473000AA27F00DB11DAA1F649F6627B00DA11D09
:10474000661F829F2227B00DA11D621F739FB00DAF
:10475000A11D621F839FA00D611D221F749F33271F
:10476000A00D611D231F849F600D211D822F762FB8
:104770006A2F11249F5750409AF0F1F088234AF095
:10478000EE0FFF1FBB1F661F771F881F9150504001
:10479000A9F79E3F510580F00C9420230C946B23C5
:1047A0005F3FE4F3983ED4F3869577956795B79588
:1047B000F795E7959F5FC1F7FE2B880F911D9695A2
:1047C000879597F908950E94FC22880B990B08950C
:1047D000EE0FFF1F0590F491E02D099481E090E029
:1047E000F8940C940724FB01DC0102C001900D92A7
:1047F00041505040D8F70895FB01DC010D90002096
:10480000E9F7119701900D920020E1F70895F894CF
:02481000FFCFD8
:10481200FFFF0000FFFFFFFF00E1000000000000BB
:104822000C020C020C020C020C02000000007D0AB9
:104832002E0D00C18081000000D0070000D00700CB
:1048420000D0070000D0070000D0070000D007000A
:1048520000D0070000D0070000D0070000D00700FA
:1048620000D0070000D0070000D0070000D00700EA
:1048720000D0070000D007000000000000590DC85A
:104882000D7A0D5F0E7D0E6F0D00000000940D2E4F
:104892000D3230303830383139006170692E796527
:1048A200656C696E6B2E6E6574000D0A00303732CE
:1048B2006131336430653661613866613839336637
:1048C2003366313063666236353766633800436F6C
:1048D2006E74656E742D4C656E6774683A20004480
:1048E200485431312C2009004F4B2C090043686594
:1048F200636B73756D206572726F722C0900546957
:104902006D65206F7574206572726F722C09007864
:1049120069616E6777616E686F6E676465694D6124
:1049220063007B2276616C7565223A007D006E61C0
:0A4932006E00696E66006F76660085
:2070000055C000006EC000006CC000006AC0000068C0000066C0000064C0000062C0000043
:2070200060C000005EC00000F2C400005AC0000058C0000056C0000054C0000052C00000EE
:2070400050C0000078C000004CC000004AC0000048C0000046C0000044C0000042C00000BE
:2070600040C000003EC000003CC000003AC0000038C0000036C0000034C0000032C0000048
:2070800030C000002EC000002CC000002AC0000028C0000026C0000024C0000022C00000A8
:2070A00020C000001EC000001CC0000011241FBECFEFDAE0DEBFCDBF11E0A0E0B1E0E2E3BC
:2070C000FFE702C005900D92A83AB107D9F711E0A8EAB1E001C01D92AE3BB107E1F78FD30B
:2070E00026C78ECFF89410926F0010928100109285001092840081E085BF15BE47985D9AEB
:20710000289A0C94000008952091B2013091B3012F5F3F4F3093B3012093B201932F37FFA6
:2071200003C08EEF831B982F990F921710F447980895479A08951F920F920FB60F9211246E
:207140002F938F939F93EF93FF9310928500109284008091A8019091A901009741F00197D3
:207160009093A9018093A801892B09F45D9A8091AA019091AB01009741F001979093AB0126
:207180008093AA01892B09F4289AE0E0F0E0859194918F5F9F4F49F08091AC019091AD0151
:2071A00001969093AD018093AC01FF91EF919F918F912F910F900FBE0F901F90189584E0BC
:2071C0008093E9000DC08091E8008B778093E80003C08EB3882351F08091E80082FFF9CFBE
:2071E0008091E80085FFEFCF8091F1000895982F83E08093E9008091E80085FD0DC0809136
:20720000E8008E778093E80003C08EB3882369F08091E80080FFF9CF9093F1005D9884E6CB
:2072200090E09093A9018093A80108954F925F926F927F928F929F92AF92BF92CF92DF921E
:20724000EF92FF920F931F93CF93DF9384E08093E9008091E80082FF57C2289884E690E067
:207260009093AB018093AA01AADF182F853481F48CE49DE19093AD018093AC0107B600FC4B
:20728000FDCFF999FECF81E180935700E89503C0843519F494DF8DE00DC28C34E1F38035F9
:2072A000D1F3843721F484E4A2DF80E003C2813611F489E5FFC18134B1F481DF182F7FDFE3
:2072C00090E0880F991FAA2797FDA095BA2F312F330F20E0442737FD4095542F822B932B68
:2072E000A42BB52BB8C1803711F483E5E3C1833549F4C0E0D1E089917ADF21E0C730D20714
:20730000D1F7D9C1863521F481E371DF80E3D2C1833731F487E86BDF85E969DF8EE1CAC149
:207320008536B9F4E0E0F0E093E085E090935700E89507B600FCFDCF80935700E89507B65D
:2073400000FCFDCFE058FF4FA0E7E030FA0771F7A2CF823739F4E1E0F0E089E08093570024
:207360008491A8C1863439F4E0E0F0E089E08093570084919FC18E3439F4E3E0F0E089E0E5
:2073800080935700849196C1813539F4E2E0F0E089E08093570084918DC1823631F489E521
:2073A00026DF80E024DF80E885C1823419F0873609F0E5C01092AD011092AC0100DF082FE8
:2073C000FEDEF82EFCDE682E8554823008F071C1902F80E0CF2DD0E0C82BD92B10926F00B3
:2073E000173609F04BC081E180935700E895DD24CC24C3943FC0E090AE01F090AF010091CC
:20740000B0011091B101B6E46B16D9F4ED2DF0E0EE29FF29E4918E2FEADEDD2081F082E08D
:2074200090E0A0E0B0E0E80EF91E0A1F1B1FE092AE01F092AF010093B0011093B101DC2470
:2074400018C0D801C701B695A7959795879559D5CEDE82E090E0A0E0B0E0E80EF91E0A1FF2
:207460001B1FE092AE01F092AF010093B0011093B1012197209709F0BECF7DC08090AE01F5
:207480009090AF01A090B001B090B10196E4691609F05DC083E0F40180935700E89507B63E
:2074A00000FCFDCF54C0F6E46F1661F5772031F1E090AE01F090AF010091B0011091B1019E
:2074C0007EDED82ECC24852D90E08C299D29F7010C0140925700E895112482E090E0A0E08B
:2074E000B0E0E80EF91E0A1F1B1FE092AE01F092AF010093B0011093B10102C060DE582E1A
:20750000742423C0E090AE01F090AF010091B0011091B10116950795F794E79450DE682FFA
:20752000C701F7D48091AE019091AF01A091B001B091B1010296A11DB11D8093AE01909349
:20754000AF01A093B001B093B101219704C05524772444244394209709F0A5CF96E46916B6
:2075600041F485E0F40180935700E89507B600FCFDCF8DE03CDE82E080936F009CC0833492
:2075800071F40091AE011091AF0119DE90E021E0F8010C0120935700E89511247CCE8336C8
:2075A00019F5E090AE01F090AF010091B0011091B10105DEF701E16090E021E00C0120938C
:2075C0005700E895112482E090E0A0E0B0E0E80EF91E0A1F1B1FE092AE01F092AF0100936A
:2075E000B0011093B10157CE8D3661F4E091AE01F091AF0185E080935700E89507B600FCF2
:20760000FDCF49CE823551F4E091AE01F091AF0105911491812FEBDD802F4CC0843421F5FE
:20762000E090AE01F090AF010091B0011091B10116950795F794E794C2DD682FC70169D4DE
:207640008091AE019091AF01A091B001B091B1010296A11DB11D8093AE019093AF01A093D8
:20766000B001B093B10117CE843609F5E090AE01F090AF010091B0011091B101D801C70142
:20768000B695A795979587953CD4B1DD82E090E0A0E0B0E0E80EF91E0A1F1B1FE092AE010A
:2076A000F092AF010093B0011093B10104C08B3111F08FE39CDD83E08093E9009091E8002B
:2076C0008091E8008E778093E80095FF04C010C08EB38823C9F08091E80080FFF9CF809193
:2076E000E8008E778093E80003C08EB3882361F08091E80080FFF9CF84E08093E9008091F1
:20770000E8008B778093E800DF91CF911F910F91FF90EF90DF90CF90BF90AF909F908F90AC
:207720007F906F905F904F9008959091B601892F8F77813249F58091B7018032A1F081328A
:2077400019F5913A09F58091E800877F8093E8008DE091E067E070E00BD28091E8008B770B
:207760008093E8000895913279F48091E800877F8093E8008DE091E067E070E05DD2809192
:20778000E8008E778093E800089582E061EC42E0B5D083E061E842E1B1D084E060E842E1EF
:2077A000ADC084B7877F84BF88E10FB6F89480936000109260000FBE20E880E090E00FB63F
:2077C000F89420936100809361000FBE81E085BF92E095BF3F9A209A559AE1E6F0E02083A1
:2077E000108247985D9A289A109289008AEF8093880090936F0083E080938100F0C0409116
:20780000000850910108109201081092000894B714BE88E10FB6F8948093600010926000D5
:207820000FBE292F30E0F901E270F07091FD18C090FF05C0859194918F5F9F4F81F423FFFF
:207840000FC08091090190910A014817590741F0E0E0F0E0859194918F5F9F4F09F042DC64
:20786000A0DF78941092AD011092AC010CC0DEDC36D38091AC019091AD0181549F4110F00D
:207880001092140141DC80911401882381F78091E00081608093E00025DC80E090E0089598
:2078A000FA01923049F0933061F09130F9F485E191E022E130E01EC087E291E02EE330E04D
:2078C00019C0882329F485E691E024E030E012C0813029F489E691E022E230E00BC0823006
:2078E00029F48DE891E028E130E004C080E090E020E030E091838083C90108958093E9004E
:207900008091EB0081608093EB001092ED006093EC004093ED008091EE00881F8827881F62
:2079200008958091B60188238CF403C08EB38823B1F08091E80082FFF9CF8091E8008B772A
:207940008093E80008958EB3882349F08091E80080FFF9CF8091E8008E778093E800089594
:20796000EF92FF920F931F9345D04CD008ED10E0F80180818F77808380818068808380819B
:207980008F7D808319BC1EBA1092B40180EEE82EF12CF70180818B7F8083F8018081816052
:2079A000808380E060E042E0A9DFE1EEF0E080818E7F8083E2EEF0E0808181608083808144
:2079C00088608083F70180818E7F8083F8018081806180831F910F91FF90EF900895E7ED06
:2079E000F0E08081816080838AE482BF81E08093B501B6CFE8EDF0E080818E7F808310921C
:207A0000E20008951092DA001092E10008951F920F920FB60F9211242F933F934F935F93F6
:207A20006F937F938F939F93AF93BF93EF93FF938091DA0080FF1BC08091D80080FF17C0B2
:207A40008091DA008E7F8093DA008091D90080FF0BC080E189BD82E189BD09B400FEFDCF36
:207A600081E08EBB3BD203C019BC1EBA37D28091E10080FF17C08091E20080FF13C0809138
:207A8000E2008E7F8093E2008091E20080618093E2008091D80080628093D80019BC85E049
:207AA0008EBB1CD28091E10084FF2CC08091E20084FF28C080E189BD82E189BD09B400FEC5
:207AC000FDCF8091D8008F7D8093D8008091E1008F7E8093E1008091E2008F7E8093E20012
:207AE0008091E20081608093E2008091B401882331F48091E30087FD02C081E001C084E067
:207B00008EBBECD18091E10083FF21C08091E20083FF1DC08091E100877F8093E10082E06A
:207B20008EBB1092B4018091E1008E7F8093E1008091E2008E7F8093E2008091E2008061E9
:207B40008093E20080E060E042E0D8DEC7D1FF91EF91BF91AF919F918F917F916F915F9130
:207B60004F913F912F910F900FBE0F901F9018959C014091BC015091BD014617570718F49D
:207B8000F90190E044C06115710511F0AB01F8CF8091E8008E778093E80040E050E0F0CF0F
:207BA0008EB3882309F444C0853009F443C08091E80083FF02C081E008958091E80082FD70
:207BC00031C08091E80080FF22C08091F3009091F200782F60E0292F30E0262B372B07C07A
:207BE00081918093F100415050402F5F3F4F4115510519F02830310598F390E02830310566
:207C000009F491E08091E8008E778093E8004115510531F6992321F605C08EB3882341F075
:207C2000853041F08091E80082FFF7CF80E0089582E0089583E008959C016115710529F47C
:207C40008091E8008B778093E800F90126C08EB3882391F1853091F18091E80083FF02C06C
:207C600081E008958091E80082FFF1CF06C08091F10081936150704059F02091F300809191
:207C8000F200322F20E090E0822B932B892B79F78091E8008B778093E80061157105B9F601
:207CA00005C08EB3882341F0853041F08091E80080FFF7CF80E0089582E0089583E00895C2
:207CC0000F931F93DF93CF9300D0CDB7DEB7E6EBF1E08091F100819381E0EE3BF807C9F792
:207CE00024DD8091E80083FFE4C08091B6019091B701953009F46DC0963040F4913081F1A7
:207D0000913070F0933009F0D4C02AC0983009F4A3C0993009F4B2C0963009F0CAC07CC023
:207D2000803809F4C6C0823809F0C3C08091BA0187708093E9008091EB001092E9002091DB
:207D4000E800277F2093E80090E025E0969587952A95E1F781708093F1001092F10087C0D8
:207D6000882319F0823009F0A4C08F71823009F0A0C08091B801882331F52091BA01277097
:207D800009F497C02093E9008091EB0080FF1BC0933021F48091EB00806213C08091EB0018
:207DA00080618093EB0081E090E002C0880F991F2A95E2F78093EA001092EA008091EB00E5
:207DC00088608093EB001092E9008091E800877F51C0882309F06DC01091B8011F770FB79B
:207DE000F8948091E800877F8093E8009ADD8091E80080FFFCCF8091E3008078812B809398
:207E0000E30080688093E300112311F482E001C083E08EBB0FBF4DC08058823008F049C033
:207E20008091B8019091B9016091BA01AE014F5F5F4F36DDBC01009709F43BC08091E8008E
:207E4000877F8093E80089819A8192DE8091E8008B778093E8002DC0803859F58091E800AA
:207E6000877F8093E8008091B4018093F1008091E8008E778093E80054DD1BC08823C9F4CA
:207E80009091B8019230A8F48091E800877F8093E8009093B40145DD8091B401882331F420
:207EA0008091E30087FD02C081E001C084E08EBB6CDC8091E80083FF0AC08091EB0080624E
:207EC0008093EB008091E800877F8093E8000F900F90CF91DF911F910F91089508951F9360
:207EE0008EB3882361F01091E9001092E9008091E80083FF01C0E4DE17701093E9001F916F
:207F00000895F999FECF92BD81BDF89A992780B50895262FF999FECF1FBA92BD81BD20BDBD
:207F20000FB6F894FA9AF99A0FBE01960895F894FFCF4341544552494E4100777700080031
:207F40000000000000080112011001020000084123360001000201000109023E00020100FF
:207F600080320904000001020201000524001001042402040524060001070582030800FF0C
:207F800009040100020A000000070504021000010705830210000104030904220341007216
:207FA000006400750069006E006F0020004C0065006F006E006100720064006F0000001836
:1A7FC00003410072006400750069006E006F0020004C004C004300000000D7
:00000001FF
